{
  "transactions": [
    {
      "hash": "0x00d896106ecbc00972507137988e90018fb082e50c3f8db79642fd4cfeafcc7a",
      "transactionType": "CALL",
      "contractName": null,
      "contractAddress": "0xdb6e329005b80684df43e89bf5c3710d3c2c44c5",
      "function": "roleManager()",
      "arguments": [],
      "transaction": {
        "from": "0xdd006633a161deb07661b7e73ecf1fe3dde3b1ff",
        "to": "0xdb6e329005b80684df43e89bf5c3710d3c2c44c5",
        "gas": "0x8c3a",
        "value": "0x0",
        "input": "0x00435da5",
        "nonce": "0x30",
        "chainId": "0x92"
      },
      "additionalContracts": [],
      "isFixedGasLimit": false
    },
    {
      "hash": "0x5e925a841c1eb01afab79f741e9fdf9e92900d750ad1d645c898f20e68170b2e",
      "transactionType": "CALL",
      "contractName": null,
      "contractAddress": "0xdb6e329005b80684df43e89bf5c3710d3c2c44c5",
      "function": "authorizer()",
      "arguments": [],
      "transaction": {
        "from": "0xdd006633a161deb07661b7e73ecf1fe3dde3b1ff",
        "to": "0xdb6e329005b80684df43e89bf5c3710d3c2c44c5",
        "gas": "0x8e40",
        "value": "0x0",
        "input": "0xd09edf31",
        "nonce": "0x31",
        "chainId": "0x92"
      },
      "additionalContracts": [],
      "isFixedGasLimit": false
    },
    {
      "hash": "0xcde1507c10227abb62a89be3618c61128c45a3a6b5a1cf0915055e05bdc8d82b",
      "transactionType": "CALL",
      "contractName": null,
      "contractAddress": "0x721c2190ac69741416c368fb83aaebe66bc51364",
      "function": "getOwners()",
      "arguments": [],
      "transaction": {
        "from": "0xdd006633a161deb07661b7e73ecf1fe3dde3b1ff",
        "to": "0x721c2190ac69741416c368fb83aaebe66bc51364",
        "gas": "0xbe98",
        "value": "0x0",
        "input": "0xa0e67e2b",
        "nonce": "0x32",
        "chainId": "0x92"
      },
      "additionalContracts": [],
      "isFixedGasLimit": false
    },
    {
      "hash": "0x5f9b1401b2e6f59143845a66f17ce4829ec790caa0ffdfe6d95bd5007b43f63e",
      "transactionType": "CALL",
      "contractName": null,
      "contractAddress": "0x721c2190ac69741416c368fb83aaebe66bc51364",
      "function": "nonce()",
      "arguments": [],
      "transaction": {
        "from": "0xdd006633a161deb07661b7e73ecf1fe3dde3b1ff",
        "to": "0x721c2190ac69741416c368fb83aaebe66bc51364",
        "gas": "0x9866",
        "value": "0x0",
        "input": "0xaffed0e0",
        "nonce": "0x33",
        "chainId": "0x92"
      },
      "additionalContracts": [],
      "isFixedGasLimit": false
    },
    {
      "hash": "0xc01d2a61217028cdb53f27f0b7bebac827142f67af254a9cf324ec2a4c9b12c9",
      "transactionType": "CALL",
      "contractName": null,
      "contractAddress": "0x721c2190ac69741416c368fb83aaebe66bc51364",
      "function": "getTransactionHash(address,uint256,bytes,uint8,uint256,uint256,uint256,address,address,uint256)",
      "arguments": [
        "0x38869bf66a61cF6bDB996A6aE40D5853Fd43B526",
        "0",
        "0x8d80ff0a0000000000000000000000000000000000000000000000000000000000000020000000000000000000000000000000000000000000000000000000000000030b0071ac6a3f1cb02e43bb201d9e835881f1712ae608000000000000000000000000000000000000000000000000000000000000000000000000000000000000000000000000000000000000000000000000000000645e7c67db0000000000000000000000000000000000000000000000000000000000000020000000000000000000000000000000000000000000000000000000000000000153696c6f417574686f72697a657200000000000000000000000000000000000001bbb7412f5dac3ed358c42e34b51ba2256fb3eb17000000000000000000000000000000000000000000000000000000000000000000000000000000000000000000000000000000000000000000000000000000c48cb97435000000000000000000000000db6e329005b80684df43e89bf5c3710d3c2c44c5000000000000000000000000cef16d1749b245c805f04b66cc04bd17adecc2bb00000000000000000000000000000000000000000000000000000000000000000000000000000000000000000000000000000000000000000000000000000080000000000000000000000000000000000000000000000000000000000000000153696c6f417574686f72697a657200000000000000000000000000000000000001bbb7412f5dac3ed358c42e34b51ba2256fb3eb17000000000000000000000000000000000000000000000000000000000000000000000000000000000000000000000000000000000000000000000000000000e47fa71fb4000000000000000000000000db6e329005b80684df43e89bf5c3710d3c2c44c5000000000000000000000000000000000000000000000000000000000000006000000000000000000000000000000000000000000000000000000000000000a0000000000000000000000000000000000000000000000000000000000000000153696c6f417574686f72697a65720000000000000000000000000000000000000000000000000000000000000000000000000000000000000000000000000001000000000000000000000000dd006633a161deb07661b7e73ecf1fe3dde3b1ff000000000000000000000000000000000000000000",
        "1",
        "0",
        "0",
        "0",
        "0x0000000000000000000000000000000000000000",
        "0x0000000000000000000000000000000000000000",
        "1"
      ],
      "transaction": {
        "from": "0xdd006633a161deb07661b7e73ecf1fe3dde3b1ff",
        "to": "0x721c2190ac69741416c368fb83aaebe66bc51364",
        "gas": "0xc3c6",
        "value": "0x0",
        "input": "0xd8d11f7800000000000000000000000038869bf66a61cf6bdb996a6ae40d5853fd43b52600000000000000000000000000000000000000000000000000000000000000000000000000000000000000000000000000000000000000000000000000000140000000000000000000000000000000000000000000000000000000000000000100000000000000000000000000000000000000000000000000000000000000000000000000000000000000000000000000000000000000000000000000000000000000000000000000000000000000000000000000000000000000000000000000000000000000000000000000000000000000000000000000000000000000000000000000000000000000000000000000000000000000000000000000000000000000000000000000000000000000000000000000000000000000000000000100000000000000000000000000000000000000000000000000000000000003648d80ff0a0000000000000000000000000000000000000000000000000000000000000020000000000000000000000000000000000000000000000000000000000000030b0071ac6a3f1cb02e43bb201d9e835881f1712ae608000000000000000000000000000000000000000000000000000000000000000000000000000000000000000000000000000000000000000000000000000000645e7c67db0000000000000000000000000000000000000000000000000000000000000020000000000000000000000000000000000000000000000000000000000000000153696c6f417574686f72697a657200000000000000000000000000000000000001bbb7412f5dac3ed358c42e34b51ba2256fb3eb17000000000000000000000000000000000000000000000000000000000000000000000000000000000000000000000000000000000000000000000000000000c48cb97435000000000000000000000000db6e329005b80684df43e89bf5c3710d3c2c44c5000000000000000000000000cef16d1749b245c805f04b66cc04bd17adecc2bb00000000000000000000000000000000000000000000000000000000000000000000000000000000000000000000000000000000000000000000000000000080000000000000000000000000000000000000000000000000000000000000000153696c6f417574686f72697a657200000000000000000000000000000000000001bbb7412f5dac3ed358c42e34b51ba2256fb3eb17000000000000000000000000000000000000000000000000000000000000000000000000000000000000000000000000000000000000000000000000000000e47fa71fb4000000000000000000000000db6e329005b80684df43e89bf5c3710d3c2c44c5000000000000000000000000000000000000000000000000000000000000006000000000000000000000000000000000000000000000000000000000000000a0000000000000000000000000000000000000000000000000000000000000000153696c6f417574686f72697a65720000000000000000000000000000000000000000000000000000000000000000000000000000000000000000000000000001000000000000000000000000dd006633a161deb07661b7e73ecf1fe3dde3b1ff00000000000000000000000000000000000000000000000000000000000000000000000000000000000000000000000000",
        "nonce": "0x34",
        "chainId": "0x92"
      },
      "additionalContracts": [],
      "isFixedGasLimit": false
    },
    {
      "hash": "0x9d891f0bf3ab53d0105a9edba2e0cce95591a2ebcc7164c456ed753569f4dcb2",
      "transactionType": "CALL",
      "contractName": null,
      "contractAddress": "0x721c2190ac69741416c368fb83aaebe66bc51364",
      "function": "execTransaction(address,uint256,bytes,uint8,uint256,uint256,uint256,address,address,bytes)",
      "arguments": [
        "0x38869bf66a61cF6bDB996A6aE40D5853Fd43B526",
        "0",
        "0x8d80ff0a0000000000000000000000000000000000000000000000000000000000000020000000000000000000000000000000000000000000000000000000000000030b0071ac6a3f1cb02e43bb201d9e835881f1712ae608000000000000000000000000000000000000000000000000000000000000000000000000000000000000000000000000000000000000000000000000000000645e7c67db0000000000000000000000000000000000000000000000000000000000000020000000000000000000000000000000000000000000000000000000000000000153696c6f417574686f72697a657200000000000000000000000000000000000001bbb7412f5dac3ed358c42e34b51ba2256fb3eb17000000000000000000000000000000000000000000000000000000000000000000000000000000000000000000000000000000000000000000000000000000c48cb97435000000000000000000000000db6e329005b80684df43e89bf5c3710d3c2c44c5000000000000000000000000cef16d1749b245c805f04b66cc04bd17adecc2bb00000000000000000000000000000000000000000000000000000000000000000000000000000000000000000000000000000000000000000000000000000080000000000000000000000000000000000000000000000000000000000000000153696c6f417574686f72697a657200000000000000000000000000000000000001bbb7412f5dac3ed358c42e34b51ba2256fb3eb17000000000000000000000000000000000000000000000000000000000000000000000000000000000000000000000000000000000000000000000000000000e47fa71fb4000000000000000000000000db6e329005b80684df43e89bf5c3710d3c2c44c5000000000000000000000000000000000000000000000000000000000000006000000000000000000000000000000000000000000000000000000000000000a0000000000000000000000000000000000000000000000000000000000000000153696c6f417574686f72697a65720000000000000000000000000000000000000000000000000000000000000000000000000000000000000000000000000001000000000000000000000000dd006633a161deb07661b7e73ecf1fe3dde3b1ff000000000000000000000000000000000000000000",
        "1",
        "0",
        "0",
        "0",
        "0x0000000000000000000000000000000000000000",
        "0x0000000000000000000000000000000000000000",
        "0x492ecbf3381cba18c2b0abbc49111510a037ef739602e12c13d1db44cea195a66f50ea39267c8cfb63289d7cfca14bbb9ab989eb43787b6b68d8f5b512b7fc681b"
      ],
      "transaction": {
        "from": "0xdd006633a161deb07661b7e73ecf1fe3dde3b1ff",
        "to": "0x721c2190ac69741416c368fb83aaebe66bc51364",
        "gas": "0xb9bf5",
        "value": "0x0",
        "input": "0x6a76120200000000000000000000000038869bf66a61cf6bdb996a6ae40d5853fd43b5260000000000000000000000000000000000000000000000000000000000000000000000000000000000000000000000000000000000000000000000000000014000000000000000000000000000000000000000000000000000000000000000010000000000000000000000000000000000000000000000000000000000000000000000000000000000000000000000000000000000000000000000000000000000000000000000000000000000000000000000000000000000000000000000000000000000000000000000000000000000000000000000000000000000000000000000000000000000000000000000000000000000000000000000000000000000000000000000000000000000000000000000000000000000000000000004e000000000000000000000000000000000000000000000000000000000000003648d80ff0a0000000000000000000000000000000000000000000000000000000000000020000000000000000000000000000000000000000000000000000000000000030b0071ac6a3f1cb02e43bb201d9e835881f1712ae608000000000000000000000000000000000000000000000000000000000000000000000000000000000000000000000000000000000000000000000000000000645e7c67db0000000000000000000000000000000000000000000000000000000000000020000000000000000000000000000000000000000000000000000000000000000153696c6f417574686f72697a657200000000000000000000000000000000000001bbb7412f5dac3ed358c42e34b51ba2256fb3eb17000000000000000000000000000000000000000000000000000000000000000000000000000000000000000000000000000000000000000000000000000000c48cb97435000000000000000000000000db6e329005b80684df43e89bf5c3710d3c2c44c5000000000000000000000000cef16d1749b245c805f04b66cc04bd17adecc2bb00000000000000000000000000000000000000000000000000000000000000000000000000000000000000000000000000000000000000000000000000000080000000000000000000000000000000000000000000000000000000000000000153696c6f417574686f72697a657200000000000000000000000000000000000001bbb7412f5dac3ed358c42e34b51ba2256fb3eb17000000000000000000000000000000000000000000000000000000000000000000000000000000000000000000000000000000000000000000000000000000e47fa71fb4000000000000000000000000db6e329005b80684df43e89bf5c3710d3c2c44c5000000000000000000000000000000000000000000000000000000000000006000000000000000000000000000000000000000000000000000000000000000a0000000000000000000000000000000000000000000000000000000000000000153696c6f417574686f72697a65720000000000000000000000000000000000000000000000000000000000000000000000000000000000000000000000000001000000000000000000000000dd006633a161deb07661b7e73ecf1fe3dde3b1ff000000000000000000000000000000000000000000000000000000000000000000000000000000000000000000000000000000000000000000000000000000000000000000000000000000000000000041492ecbf3381cba18c2b0abbc49111510a037ef739602e12c13d1db44cea195a66f50ea39267c8cfb63289d7cfca14bbb9ab989eb43787b6b68d8f5b512b7fc681b00000000000000000000000000000000000000000000000000000000000000",
        "nonce": "0x35",
        "chainId": "0x92"
      },
      "additionalContracts": [],
      "isFixedGasLimit": false
    }
  ],
  "receipts": [
    {
      "status": "0x1",
      "cumulativeGasUsed": "0x3844b",
      "logs": [],
      "logsBloom": "0x00000000000000000000000000000000000000000000000000000000000000000000000000000000000000000000000000000000000000000000000000000000000000000000000000000000000000000000000000000000000000000000000000000000000000000000000000000000000000000000000000000000000000000000000000000000000000000000000000000000000000000000000000000000000000000000000000000000000000000000000000000000000000000000000000000000000000000000000000000000000000000000000000000000000000000000000000000000000000000000000000000000000000000000000000000000",
      "type": "0x2",
      "transactionHash": "0x00d896106ecbc00972507137988e90018fb082e50c3f8db79642fd4cfeafcc7a",
      "transactionIndex": "0x1",
      "blockHash": "0x5a428e30ab8aa40548ddaf51ba73c7399a29b5cb12937476c080fb695882ee94",
      "blockNumber": "0x640579",
      "gasUsed": "0x6964",
      "effectiveGasPrice": "0xba43b7401",
      "from": "0xdd006633a161deb07661b7e73ecf1fe3dde3b1ff",
      "to": "0xdb6e329005b80684df43e89bf5c3710d3c2c44c5",
      "contractAddress": null
    },
    {
      "status": "0x1",
      "cumulativeGasUsed": "0x6f249",
      "logs": [],
      "logsBloom": "0x00000000000000000000000000000000000000000000000000000000000000000000000000000000000000000000000000000000000000000000000000000000000000000000000000000000000000000000000000000000000000000000000000000000000000000000000000000000000000000000000000000000000000000000000000000000000000000000000000000000000000000000000000000000000000000000000000000000000000000000000000000000000000000000000000000000000000000000000000000000000000000000000000000000000000000000000000000000000000000000000000000000000000000000000000000000",
      "type": "0x2",
      "transactionHash": "0x5e925a841c1eb01afab79f741e9fdf9e92900d750ad1d645c898f20e68170b2e",
      "transactionIndex": "0x3",
      "blockHash": "0x5a428e30ab8aa40548ddaf51ba73c7399a29b5cb12937476c080fb695882ee94",
      "blockNumber": "0x640579",
      "gasUsed": "0x6aeb",
      "effectiveGasPrice": "0xba43b7401",
      "from": "0xdd006633a161deb07661b7e73ecf1fe3dde3b1ff",
      "to": "0xdb6e329005b80684df43e89bf5c3710d3c2c44c5",
      "contractAddress": null
    },
    {
      "status": "0x1",
      "cumulativeGasUsed": "0xd0201",
      "logs": [],
      "logsBloom": "0x00000000000000000000000000000000000000000000000000000000000000000000000000000000000000000000000000000000000000000000000000000000000000000000000000000000000000000000000000000000000000000000000000000000000000000000000000000000000000000000000000000000000000000000000000000000000000000000000000000000000000000000000000000000000000000000000000000000000000000000000000000000000000000000000000000000000000000000000000000000000000000000000000000000000000000000000000000000000000000000000000000000000000000000000000000000",
      "type": "0x2",
      "transactionHash": "0xcde1507c10227abb62a89be3618c61128c45a3a6b5a1cf0915055e05bdc8d82b",
      "transactionIndex": "0x5",
      "blockHash": "0x5a428e30ab8aa40548ddaf51ba73c7399a29b5cb12937476c080fb695882ee94",
      "blockNumber": "0x640579",
      "gasUsed": "0x8859",
      "effectiveGasPrice": "0xba43b7401",
      "from": "0xdd006633a161deb07661b7e73ecf1fe3dde3b1ff",
      "to": "0x721c2190ac69741416c368fb83aaebe66bc51364",
      "contractAddress": null
    },
    {
      "status": "0x1",
      "cumulativeGasUsed": "0x728a",
      "logs": [],
      "logsBloom": "0x00000000000000000000000000000000000000000000000000000000000000000000000000000000000000000000000000000000000000000000000000000000000000000000000000000000000000000000000000000000000000000000000000000000000000000000000000000000000000000000000000000000000000000000000000000000000000000000000000000000000000000000000000000000000000000000000000000000000000000000000000000000000000000000000000000000000000000000000000000000000000000000000000000000000000000000000000000000000000000000000000000000000000000000000000000000",
      "type": "0x2",
      "transactionHash": "0x5f9b1401b2e6f59143845a66f17ce4829ec790caa0ffdfe6d95bd5007b43f63e",
      "transactionIndex": "0x0",
      "blockHash": "0xeaa6058083d5bdcd0f2645acd6077de7ea08b80e62696cd03de772e23ae12b1f",
      "blockNumber": "0x64057c",
      "gasUsed": "0x728a",
      "effectiveGasPrice": "0xba43b7401",
      "from": "0xdd006633a161deb07661b7e73ecf1fe3dde3b1ff",
      "to": "0x721c2190ac69741416c368fb83aaebe66bc51364",
      "contractAddress": null
    },
    {
      "status": "0x1",
      "cumulativeGasUsed": "0x19a79",
      "logs": [],
      "logsBloom": "0x00000000000000000000000000000000000000000000000000000000000000000000000000000000000000000000000000000000000000000000000000000000000000000000000000000000000000000000000000000000000000000000000000000000000000000000000000000000000000000000000000000000000000000000000000000000000000000000000000000000000000000000000000000000000000000000000000000000000000000000000000000000000000000000000000000000000000000000000000000000000000000000000000000000000000000000000000000000000000000000000000000000000000000000000000000000",
      "type": "0x2",
      "transactionHash": "0xc01d2a61217028cdb53f27f0b7bebac827142f67af254a9cf324ec2a4c9b12c9",
      "transactionIndex": "0x2",
      "blockHash": "0xeaa6058083d5bdcd0f2645acd6077de7ea08b80e62696cd03de772e23ae12b1f",
      "blockNumber": "0x64057c",
      "gasUsed": "0x9325",
      "effectiveGasPrice": "0xba43b7401",
      "from": "0xdd006633a161deb07661b7e73ecf1fe3dde3b1ff",
      "to": "0x721c2190ac69741416c368fb83aaebe66bc51364",
      "contractAddress": null
    },
    {
      "status": "0x1",
      "cumulativeGasUsed": "0x12d669",
      "logs": [
        {
          "address": "0x721c2190ac69741416c368fb83aaebe66bc51364",
          "topics": [
            "0x66753cd2356569ee081232e3be8909b950e0a76c1f8460c3a5e3c2be32b11bed"
          ],
          "data": "0x00000000000000000000000038869bf66a61cf6bdb996a6ae40d5853fd43b526000000000000000000000000000000000000000000000000000000000000000000000000000000000000000000000000000000000000000000000000000001600000000000000000000000000000000000000000000000000000000000000001000000000000000000000000000000000000000000000000000000000000000000000000000000000000000000000000000000000000000000000000000000000000000000000000000000000000000000000000000000000000000000000000000000000000000000000000000000000000000000000000000000000000000000000000000000000000000000000000000000000000000000000000000000000000000000000000000000000000000000000000000000000000000000000500000000000000000000000000000000000000000000000000000000000000058000000000000000000000000000000000000000000000000000000000000003648d80ff0a0000000000000000000000000000000000000000000000000000000000000020000000000000000000000000000000000000000000000000000000000000030b0071ac6a3f1cb02e43bb201d9e835881f1712ae608000000000000000000000000000000000000000000000000000000000000000000000000000000000000000000000000000000000000000000000000000000645e7c67db0000000000000000000000000000000000000000000000000000000000000020000000000000000000000000000000000000000000000000000000000000000153696c6f417574686f72697a657200000000000000000000000000000000000001bbb7412f5dac3ed358c42e34b51ba2256fb3eb17000000000000000000000000000000000000000000000000000000000000000000000000000000000000000000000000000000000000000000000000000000c48cb97435000000000000000000000000db6e329005b80684df43e89bf5c3710d3c2c44c5000000000000000000000000cef16d1749b245c805f04b66cc04bd17adecc2bb00000000000000000000000000000000000000000000000000000000000000000000000000000000000000000000000000000000000000000000000000000080000000000000000000000000000000000000000000000000000000000000000153696c6f417574686f72697a657200000000000000000000000000000000000001bbb7412f5dac3ed358c42e34b51ba2256fb3eb17000000000000000000000000000000000000000000000000000000000000000000000000000000000000000000000000000000000000000000000000000000e47fa71fb4000000000000000000000000db6e329005b80684df43e89bf5c3710d3c2c44c5000000000000000000000000000000000000000000000000000000000000006000000000000000000000000000000000000000000000000000000000000000a0000000000000000000000000000000000000000000000000000000000000000153696c6f417574686f72697a65720000000000000000000000000000000000000000000000000000000000000000000000000000000000000000000000000001000000000000000000000000dd006633a161deb07661b7e73ecf1fe3dde3b1ff000000000000000000000000000000000000000000000000000000000000000000000000000000000000000000000000000000000000000000000000000000000000000000000000000000000000000041492ecbf3381cba18c2b0abbc49111510a037ef739602e12c13d1db44cea195a66f50ea39267c8cfb63289d7cfca14bbb9ab989eb43787b6b68d8f5b512b7fc681b0000000000000000000000000000000000000000000000000000000000000000000000000000000000000000000000000000000000000000000000000000600000000000000000000000000000000000000000000000000000000000000001000000000000000000000000dd006633a161deb07661b7e73ecf1fe3dde3b1ff0000000000000000000000000000000000000000000000000000000000000001",
          "blockHash": "0xeaa6058083d5bdcd0f2645acd6077de7ea08b80e62696cd03de772e23ae12b1f",
          "blockNumber": "0x64057c",
          "transactionHash": "0x9d891f0bf3ab53d0105a9edba2e0cce95591a2ebcc7164c456ed753569f4dcb2",
          "transactionIndex": "0x6",
          "logIndex": "0x4",
          "removed": false
        },
        {
          "address": "0x71ac6a3f1cb02e43bb201d9e835881f1712ae608",
          "topics": [
            "0x400b1a91f3c12e695abb38f7fc20dd2cf26f6d9c4d1dc817d39a98b51f146f78",
            "0x53696c6f417574686f72697a6572000000000000000000000000000000000000",
            "0x000000000000000000000000721c2190ac69741416c368fb83aaebe66bc51364"
          ],
          "data": "0x",
          "blockHash": "0xeaa6058083d5bdcd0f2645acd6077de7ea08b80e62696cd03de772e23ae12b1f",
          "blockNumber": "0x64057c",
          "transactionHash": "0x9d891f0bf3ab53d0105a9edba2e0cce95591a2ebcc7164c456ed753569f4dcb2",
          "transactionIndex": "0x6",
          "logIndex": "0x5",
          "removed": false
        },
        {
          "address": "0xf8bb15a8181e557a8ee384a88a5ec93632d307e5",
          "topics": [
            "0xd46106481e77b634fbbb2df03a3e15989faf5dfcd556c94702ca66dc5106e349",
            "0x0000000000000000000000000000000000000000000000000000000000000000",
            "0x53696c6f417574686f72697a6572000000000000000000000000000000000000",
            "0x000000000000000000000000cef16d1749b245c805f04b66cc04bd17adecc2bb"
          ],
          "data": "0x",
          "blockHash": "0xeaa6058083d5bdcd0f2645acd6077de7ea08b80e62696cd03de772e23ae12b1f",
          "blockNumber": "0x64057c",
          "transactionHash": "0x9d891f0bf3ab53d0105a9edba2e0cce95591a2ebcc7164c456ed753569f4dcb2",
          "transactionIndex": "0x6",
          "logIndex": "0x6",
          "removed": false
        },
        {
          "address": "0xdb6e329005b80684df43e89bf5c3710d3c2c44c5",
          "topics": [
            "0x3be018e2afae1fe2bb23bb3cc019524cfe3872f2863d1c80b7a228c57bc1065a",
            "0x000000000000000000000000dd006633a161deb07661b7e73ecf1fe3dde3b1ff"
          ],
          "data": "0x",
          "blockHash": "0xeaa6058083d5bdcd0f2645acd6077de7ea08b80e62696cd03de772e23ae12b1f",
          "blockNumber": "0x64057c",
          "transactionHash": "0x9d891f0bf3ab53d0105a9edba2e0cce95591a2ebcc7164c456ed753569f4dcb2",
          "transactionIndex": "0x6",
          "logIndex": "0x7",
          "removed": false
        },
        {
          "address": "0x71ac6a3f1cb02e43bb201d9e835881f1712ae608",
          "topics": [
            "0x12dade473695d73bd34e031c850d5e815fa17a42b1b5ba13ff72de2497c5e309",
            "0x000000000000000000000000dd006633a161deb07661b7e73ecf1fe3dde3b1ff",
            "0x000000000000000000000000721c2190ac69741416c368fb83aaebe66bc51364"
          ],
          "data": "0x",
          "blockHash": "0xeaa6058083d5bdcd0f2645acd6077de7ea08b80e62696cd03de772e23ae12b1f",
          "blockNumber": "0x64057c",
          "transactionHash": "0x9d891f0bf3ab53d0105a9edba2e0cce95591a2ebcc7164c456ed753569f4dcb2",
          "transactionIndex": "0x6",
          "logIndex": "0x8",
          "removed": false
        },
        {
          "address": "0x71ac6a3f1cb02e43bb201d9e835881f1712ae608",
          "topics": [
            "0x2f8788117e7eff1d82e926ec794901d17c78024a50270940304540a733656f0d",
            "0x53696c6f417574686f72697a6572000000000000000000000000000000000000",
            "0x000000000000000000000000dd006633a161deb07661b7e73ecf1fe3dde3b1ff",
            "0x000000000000000000000000721c2190ac69741416c368fb83aaebe66bc51364"
          ],
          "data": "0x",
          "blockHash": "0xeaa6058083d5bdcd0f2645acd6077de7ea08b80e62696cd03de772e23ae12b1f",
          "blockNumber": "0x64057c",
          "transactionHash": "0x9d891f0bf3ab53d0105a9edba2e0cce95591a2ebcc7164c456ed753569f4dcb2",
          "transactionIndex": "0x6",
          "logIndex": "0x9",
          "removed": false
        },
        {
          "address": "0x721c2190ac69741416c368fb83aaebe66bc51364",
          "topics": [
            "0x442e715f626346e8c54381002da614f62bee8d27386535b2521ec8540898556e",
            "0x6decdedc311fb42201d0747bbf0516ad9d4c1e894ea067371e65ad6a16f49874"
          ],
          "data": "0x0000000000000000000000000000000000000000000000000000000000000000",
          "blockHash": "0xeaa6058083d5bdcd0f2645acd6077de7ea08b80e62696cd03de772e23ae12b1f",
          "blockNumber": "0x64057c",
          "transactionHash": "0x9d891f0bf3ab53d0105a9edba2e0cce95591a2ebcc7164c456ed753569f4dcb2",
          "transactionIndex": "0x6",
          "logIndex": "0xa",
          "removed": false
        }
      ],
      "logsBloom": "0x0000000440008000000008000000000000c000000000000000000400840000000002000002400000000000000020010000000000000000800080000000000000000000000000000000000000000000000000040000000000000000000000002000000000020000000000008120000800000000008000000000000000000000100000000000000000000000000000800000000008004000000000000000000000000000000400000000000002080004000000800000000000001000004000000000000000000000000000400000020000000000000000000300000000000026000000000002000400000800000000010800040008000000000000000000400000",
      "type": "0x2",
      "transactionHash": "0x9d891f0bf3ab53d0105a9edba2e0cce95591a2ebcc7164c456ed753569f4dcb2",
      "transactionIndex": "0x6",
      "blockHash": "0xeaa6058083d5bdcd0f2645acd6077de7ea08b80e62696cd03de772e23ae12b1f",
      "blockNumber": "0x64057c",
      "gasUsed": "0x8b9ad",
      "effectiveGasPrice": "0xba43b7401",
      "from": "0xdd006633a161deb07661b7e73ecf1fe3dde3b1ff",
      "to": "0x721c2190ac69741416c368fb83aaebe66bc51364",
      "contractAddress": null
    }
  ],
  "libraries": [],
  "pending": [],
  "returns": {},
  "timestamp": 1738687596,
  "chain": 146,
  "commit": "3ea7aa3"
}